:1000000022C031C009C32FC0CAC02DC02CC02BC014
:100010002AC029C028C027C026C025C024C0EE00A1
:10002000F401D400E803EE00E803EE00E803FF006B
:1000300000000000000000000000000000000000C0
:1000400000000000000011241FBECFE5D2E0DEBF9B
:10005000CDBF20E0A0E6B0E001C01D92AA37B207F4
:10006000E1F714D3A4C3CCCFBB98C39A1092640019
:1000700010926500109266001092670082E38093F0
:1000800062001092630008958091630010926300F3
:100090000895CF92DF92EF92FF920F931F930091FA
:1000A00064001091650020916600309167006B013B
:1000B0007C01C01AD10AE20AF30A970186010B30CB
:1000C000110521053105B8F0609364007093650057
:1000D0008093660090936700B3990AC08091620094
:1000E000815080936200811106C081E0809363009B
:1000F00082E3809362001F910F91FF90EF90DF9059
:10010000CF900895BC9AC49A0895C49A0895C4984B
:100110000895B49A089510926800109269001092A0
:100120006A0010926B001FBC80B7866080BF89B7E1
:10013000846089BF7894089580B7897F80BF89B72C
:100140008B7F89BF08952FB7F894609168007091F4
:10015000690080916A0090916B002FBF08958F9283
:100160009F92AF92BF92CF92DF92EF92FF926B017C
:100170007C01E9DF4B015C01E6DF681979098A0936
:100180009B096C157D058E059F05B0F3FF90EF90E0
:10019000DF90CF90BF90AF909F908F9008951F9267
:1001A0000F920FB60F9211248F939F93AF93BF932B
:1001B0008091680090916900A0916A00B0916B00F5
:1001C0000196A11DB11D8093680090936900A093D2
:1001D0006A00B0936B00BF91AF919F918F910F9088
:1001E0000FBE0F901F901895CF92DF92EF92FF9263
:1001F000CF93DF9300D000D0CDB7DEB76B017C0189
:100200008091700090917100A0917200B091730084
:10021000B701A601481B590B6A0B7B0B80916C0040
:1002200090916D00A0916E00B0916F004817590732
:100230006A077B0760F184D16091740081E0860FCA
:100240008093740070E0660F771F660F771F605011
:10025000704044E050E0CE01019670D289818F3F1A
:1002600009F510927400C0927000D0927100E09273
:100270007200F092730084EF91E0A0E0B0E0809310
:100280006C0090936D00A0936E00B0936F000F9080
:100290000F900F900F90DF91CF91FF90EF90DF9034
:1002A000CF90089542D1C0927000D0927100E09238
:1002B0007200F09273008B819C81A0E0B0E0DFCFF0
:1002C000CF92DF92EF92FF926B017C0180917000E0
:1002D00090917100A0917200B0917300B701A601D6
:1002E000481B590B6A0B7B0B80916C0090916D0041
:1002F000A0916E00B0916F00481759076A077B07FD
:1003000030F11ED1E091740081E08E0F8093740073
:10031000F0E0EE0FFF1FE25EFF4F859194918F3F5B
:10032000D9F410927400C0927000D0927100E092E3
:100330007200F092730084EF91E0A0E0B0E080934F
:100340006C0090936D00A0936E00B0936F00FF90CF
:10035000EF90DF90CF900895E8D0C0927000D092D7
:100360007100E0927200F0927300E091740081E0FD
:100370008E0F80937400F0E0EE0FFF1FE25EFF4FE0
:1003800085919491A0E0B0E0DACFCDD010927000CA
:1003900010927100109272001092730010926C0013
:1003A00010926D0010926E0010926F001092740007
:1003B00080E691E090937600809375008CE291E066
:1003C000CDD1811106C084EF90E0909376008093A8
:1003D00075000895B5C0AF92BF92CF92DF92EF92B1
:1003E000FF920F931F93CF93DF93CDB7DEB7CC521D
:1003F000D1400FB6F894DEBF0FBECDBFCE0101963F
:100400007C0100E010E0B82EAF2CF3D06C01F701B6
:10041000918380830E5F1F4FECD0F701938382831B
:10042000CD20C094B1F084E0E80EF11C0439110530
:1004300061F78FEF9FEFC75DDE4F99838883C952C5
:10044000D140C55DDE4F99838883CB52D14006E908
:1004500010E0A801440F551F60E070E08B2D9A2D2D
:1004600085D160E08CE291E090D1C45DDE4F0FB6A3
:10047000F894DEBF0FBECDBFDF91CF911F910F91DA
:10048000FF90EF90DF90CF90BF90AF90089560D035
:100490004AD06AC06FC0CF9377D0C82F882319F095
:1004A0006ED080E4DBD08C2FCF910895CF9360E1A4
:1004B00077E280E090E074D0811103C080EFCF91AB
:1004C000CDC05DD0823021F1B8F48823E9F08130CD
:1004D00071F785E6C3D068E873E180E090E060D012
:1004E000882331F02DD04BD0C82F1FD0CF3F99F7A4
:1004F00027D080EFB3D0DBCF833071F08430B9F6F2
:1005000085E6ACD060E00BC080EFA8D0CF91089515
:1005100085E6A4D060DFEDCF85E6A0D06FEF8CE25A
:1005200091E033D1E6CFB89A089512BE853638F0FF
:1005300089BD83B7836083BF8AB582648ABD08950D
:100540008AB58D7B8ABD83B78C7F83BFC0980895A1
:10055000BA98C298B99AC19A10927900109277000D
:1005600010927800789408958BB780628BBF84E0F6
:1005700085BB08958BB78F7D8BBFAA980895109285
:100580007900809177000895809179000895809195
:1005900079008823E1F31092790080917700089523
:1005A0008F929F92AF92BF92CF92DF92EF92FF9283
:1005B0006B017C01B0DDC7DD4B015C0180917900EE
:1005C000882361F0B9DD80917900FF90EF90DF9092
:1005D000CF90BF90AF909F908F900895B4DD681931
:1005E00079098A099B096C157D058E059F0530F3F5
:1005F000E9CF809179008823E1F31092790020916E
:100600007700809179008823E1F31092790080913E
:10061000770090E0922B08950F920FB6B2991BC00D
:100620002F933F938F932DE12A95F1F723E438E040
:100630002A95F1F723E48695B29980683A95C1F737
:1006400023E42A95F1F78093770081E08093790085
:100650008F913F912F910FBE0F9018952F933F933D
:10066000C19823E438E02A95F1F723E4C19A80FF8A
:10067000C19886953A95B9F723E42A95F1F7C19A7E
:1006800023E42A95F1F73F912F910895C4E0D0E03B
:1006900001E010E082E0E82EF12C93E0C92ED12C8D
:1006A00080916000909161008230910569F1C0F401
:1006B000009711F181309105B9F7A0907500B090C5
:1006C000760041DDF50109953EDDE3DCDDDC8823C4
:1006D00039F3F0926100E09260002EDD7BDEE0CF26
:1006E00083309105C9F084309105F1F6D3DE109284
:1006F000610010926000D4CF48DEB6DC0CDD1093B0
:10070000610000936000CCCFC2DE05DDADDCD0928D
:100710006100C0926000C4CFBEDE882339F00CDDDA
:10072000C5DED0936100C0936000BACF0CDDB1DCB0
:10073000ABDC882309F4B4CFFFDCF3CFDC01CB01C1
:10074000FC01E199FECF06C0FFBBEEBBE09A3196FB
:100750000DB20D9241505040B8F70895E199FECF87
:100760009FBB8EBBE09A99278DB30895DC01A40F3F
:10077000B51F4150504040F0CB01840F951F2E9182
:1007800005D041505040D8F70895262FE199FECF6B
:100790009FBB8EBBE09A01970DB2021639F01CBACE
:1007A0002DBB0FB6F894E29AE19A0FBE0895F89423
:0207B000FFCF79
:00000001FF
